:020000040800F2
:10000000D04300203D0400083904000839040008EA
:100010003904000839040008390400080000000011
:10002000000000000000000000000000390400088B
:10003000390400080000000039040008A108000885
:10004000390400083904000839040008390400089C
:100050003904000839040008B10800083904000810
:10006000ED080008010900083904000839040008F7
:10007000390400083904000839040008390400086C
:10008000390400083904000839040008390400085C
:10009000390400083904000839040008390400084C
:1000A000390400083904000839040008390400083C
:1000B000390400083904000839040008390400082C
:1000C000390400083904000839040008390400081C
:1000D000390400083904000839040008390400080C
:1000E00039040008390400083904000839040008FC
:1000F00039040008390400083904000839040008EC
:1001000039040008390400083904000839040008DB
:1001100039040008390400083904000839040008CB
:1001200039040008390400083904000839040008BB
:100130005FF808F182B03B4B1A6842F001021A6086
:100140005968394A0A405A601A6822F0847222F4C7
:1001500080321A601A6822F480221A605A6822F4E7
:10016000FE025A604FF41F029A6000220092019230
:100170001A6842F480321A601A46136803F4003396
:100180000193009B01330093019B1BB9009BB3F5C6
:10019000A06FF2D1234B1B6813F4003F14BF01235F
:1001A00000230193019B012B36D1204B1A6842F0AA
:1001B00010021A601A6822F003021A601A6842F0EC
:1001C00002021A60A3F580535A685A605A685A604E
:1001D0005A6842F480625A605A6822F47C125A606B
:1001E0005A6842F4E8125A601A6842F080721A6043
:1001F0001A46136813F0007FFBD00A4B5A6822F0AE
:1002000003025A605A6842F002025A601A46536862
:1002100003F00C03082BFAD14FF00062044B9A60F4
:1002200002B07047001002400000FFF800200240BA
:1002300000ED00E082B04FF4C8730193019B2BB135
:10024000019B013B0193019B002BF9D102B0704748
:100250002DE9F041124C4FF47C1727614FF008084C
:10026000C4F8108002262661FFF7E4FF4FF4003542
:100270002561FFF7DFFF2761C4F810802661FFF7D3
:10028000D9FF2561FFF7D6FF27612023236126616F
:10029000FFF7D0FF2561FFF7CDFFBDE8F08100BF7C
:1002A0000010014038B504464FF47C12254B1A610A
:1002B00009B101221A6114F0100F02D00422214B5F
:1002C0001A6114F0200F02D008221E4B1A6114F09C
:1002D000400F02D010221B4B1A6114F0800F02D085
:1002E0002022184B1A61174D02232B61FFF7A2FF42
:1002F0004FF400332B61FFF79DFF4FF470132B6118
:1003000014F0010F01D004222A6114F0020F02D070
:1003100008220C4B1A6114F0040F02D01022094B72
:100320001A6114F0080F02D02022064B1A61054C06
:1003300002232361FFF77EFF4FF400332361FFF7B1
:1003400079FF38BD0010014008B503291ED8DFE849
:1003500001F002080E16002140F08000FFF7A2FF16
:1003600008BD002140F0C000FFF79CFF08BD14301D
:1003700060F07F000021C0B2FFF794FF08BD143089
:1003800060F03F000021C0B2FFF78CFF08BD00BF46
:1003900038B50446007838B101252946FFF782FFB9
:1003A00014F8010F0028F8D138BD00BF08B50021AE
:1003B0000120FFF777FF08BD08B520B9002108200C
:1003C000FFF770FF08BD49B91AB90C20FFF76AFFA3
:1003D00008BD00210D20FFF765FF08BD22B90021EF
:1003E0000E20FFF75FFF08BD00210F20FFF75AFF27
:1003F00008BD00BF08B50F4B5A685A601A6842F032
:10040000111242F488521A605A685A601A6822F02F
:10041000EE1222F46E421A60FFF71AFF00210E203E
:10042000FFF740FFFFF7C2FF00210620FFF73AFF6A
:1004300008BD00BF00100140FEE700BF08B50F4B2C
:100440000F4A9A420CD2581E801A20F00300043042
:100450000C4B184453F8041B42F8041B8342F9D197
:1004600009480A494FF000028842B8BF40F8042BFF
:10047000FADBFFF75FFE00F0DBFF08BD5C08002041
:1004800000000020C84F00085C080020D03F00207A
:10049000F0B5CB7803F00F0613F0100F1CBF8B786C
:1004A0001E430B78F3B10568002301274FF00F0CB2
:1004B00007FA03F20C8832EA04040FD19C000CFA0C
:1004C00004FE25EA0E0506FA04F42543CC78282C10
:1004D00001D1426102E0482C08BF02610133082BC0
:1004E000E6D105600B88FF2B20D945680023012742
:1004F0004FF00F0E03F1080207FA02F20C8832EAFD
:1005000004040FD19C000EFA04FC25EA0C0506FA3F
:1005100004F42543CC78282C08BF4261CC78482CC1
:1005200008BF02610133082BE4D14560F0BD00BF74
:1005300030B40028184BB4BFDB695B6882B200F4AA
:100540004014B4F5401F07D123F07063124D6C685E
:1005500024F070646C6013E010F4801F08D0C0F3C6
:1005600003450324AC4023EA040343F0706307E02F
:10057000440D240102FA04F423EA040343F07063F7
:1005800019B1410D09018A4013430028024AB4BF42
:10059000D361536030BC70470000014010B401F0DB
:1005A00003039B0001F0FC0101F1804101F5803162
:1005B0008C680F229A4024EA02028A608A68984076
:1005C0001043886010BC70471F4B1A6842F4803299
:1005D0001A601A681D4A116821F010011160116833
:1005E00041F010011160116821F0030141F0020196
:1005F00011605A6822F0F0025A605A6822F4605280
:100600005A605A6822F4E06242F480625A605A6882
:1006100022F47C1242F4E8125A601A6842F08072A6
:100620001A601A46136813F0007FFBD0064A53681D
:1006300023F0030343F002035360536803F00C03F9
:10064000082BFAD1704700BF001002400020024082
:10065000074B5A6802F07F4242F047025A609A689C
:1006600002F07F429A601A6842F007021A607047EF
:1006700010E000E0F0B589B0FFF7A6FFFFF7E8FF54
:100680000121042000F064FF0121082000F060FF38
:100690000121102000F05CFF012144F2010000F074
:1006A00057FF0121084600F053FF4FF40063ADF8F7
:1006B0001C3010238DF81F3003278DF81E7007A9FA
:1006C0005148FFF7E5FE0124ADF81C4048238DF8A2
:1006D0001F304E4D07A92846FFF7DAFE0C23ADF870
:1006E0001C3028238DF81F3007A92846FFF7D0FEBD
:1006F00021464748FFF71CFF4FF48063ADF81C30DC
:1007000004238DF81F3007A92846FFF7C1FE4FF4D8
:100710000076ADF81C608DF81E7018238DF81F3020
:1007200007A92846FFF7B4FE0D2305938DF81A405C
:1007300000258DF8185008238DF8193005A800F011
:1007400015FF344B40221A604FF480721A601E600D
:1007500029462846FFF722FF02212846FFF71EFF01
:100760002146304600F0F4FE2B4A936843F0040320
:100770009360936813F0040FFBD0274B1A6942F083
:1007800038021A619A6842F4E0429A609A6842F428
:1007900000429A609A6842F002029A605A6842F4F3
:1007A00080625A609A6B42F400429A639A6842F0FF
:1007B00001029A609A6842F400129A601A4613681D
:1007C00013F0040FFBD0FFF715FE002211460120A5
:1007D000FFF7F2FD4FF47A3301930023ADF80830B0
:1007E000ADF80A30ADF80C30ADF810300C23ADF890
:1007F0000E300A4C01A9204600F006FF01212046D8
:1008000000F05EFF09B0F0BD000C0140000801409F
:100810000002300000E100E0002401400038014007
:10082000054A138803F040039BB2002BF9D080B235
:10083000014B9880704700BF0038014070B50546F5
:100840000E46007838B10024FFF7EAFF0134E4B225
:10085000285D0028F8D12EB10D20FFF7E1FF0A2016
:10086000FFF7DEFF70BD00BF002916DD70B503780D
:100870007BB1002402E010F8013F5BB10134A142DA
:10088000F9D170BD3046FFF783FD0134A542F9DC94
:1008900070BD00240D46014EF4E770471C4E000861
:1008A000024A136801331360704700BF5C080020E0
:1008B00010B5012000F0A2FE094AD36883F400635A
:1008C000D360084C20686368C01A01F017FE014627
:1008D000054801F01FFFA0602368636010BD00BFE2
:1008E000000C01405C08002000BE6C4808B50420E4
:1008F00000F084FE0122014B1A7308BD5C08002041
:1009000008B5082000F07AFE0022014B1A7308BDDA
:100910005C08002038B5674B5B7B062B00F2C68075
:10092000DFE803F0041E385F778FAF00624BD86BAF
:10093000624B1880624C0A22214680B202F062F8B3
:1009400000210220FFF700FD2046FFF721FD0421D2
:100950002046FFF789FF574A537B0133537338BD55
:10096000544CA06801F0E8FF80B2E081544D0A22A7
:10097000294602F047F800210920FFF7E5FC284648
:10098000FFF706FD03212846FFF76EFF637B013367
:10099000637338BD03211320FFF7D6FC454B1B7B47
:1009A00013F0FF0F0CBF47484748FFF7F1FC414CDD
:1009B000206901F0C1FF80B2E081414D0A22294641
:1009C00002F020F800210F20FFF7BEFC2846FFF7B9
:1009D000DFFC04212846FFF747FF637B0133637385
:1009E00038BD374D334C606901F05EF92B460C225F
:1009F00001F0C2FF01210320FFF7A6FC2846FFF704
:100A0000C7FC05212846FFF72FFF637B0133637383
:100A100038BD2B4D274CA06901F046F92B460C221E
:100A200001F0AAFF02210846FFF78EFC2846FFF7D7
:100A3000AFFC05212846FFF717FF637B0133637383
:100A400038BD03210220FFF77FFC1A4B9B8B012B43
:100A500007D013B1022B08D00BE01C48FFF798FC1D
:100A60000AE01B48FFF794FC06E01A48FFF790FCE9
:100A700002E01948FFF78CFC0E4A537B0133537395
:100A800038BD0F4C0B4D0A222146E88B01F0BAFF0E
:100A900003210620FFF758FC2046FFF779FC0421CC
:100AA0002046FFF7E1FE00236B7338BD0022014BA7
:100AB0005A7338BD5C0800200024014064200020E7
:100AC000BC3F0020204E0008244E0008284E00089D
:100AD0002C4E0008304E00081C4E000838B500218E
:100AE0006B48FFF7ABFE6B4D28686B4C0A22214622
:100AF00001F088FF00212046FFF7A0FE3B20FFF712
:100B00008FFE00216548FFF799FE654BD86B654B5A
:100B100018800A22214680B201F074FF002120468D
:100B2000FFF78CFE3B20FFF77BFE00215E48FFF7BE
:100B300085FEA86801F0B8F800F0E0FD01F0B8FB10
:100B400080B2E8810A22214601F05CFF00212046A4
:100B5000FFF774FE3B20FFF763FE00215348FFF7C9
:100B60006DFE286901F0A0F800F0C8FD01F0A0FBBF
:100B700080B2E8810A22214601F044FF002120468C
:100B8000FFF75CFE3B20FFF74BFE00214848FFF7D4
:100B900055FE2B7B13F0FF0F0CBF30203120FFF7E9
:100BA0003FFE3B20FFF73CFE00214248FFF746FE98
:100BB000394C384D286A01F077F823460C2201F0B1
:100BC000DBFE00212046FFF739FE3B20FFF728FE21
:100BD00000213948FFF732FE686A01F065F82346C4
:100BE0000C2201F0C9FE00212046FFF727FE3B2022
:100BF000FFF716FE00213148FFF720FEA86901F03B
:100C000053F823460C2201F0B7FE00212046FFF7DF
:100C100015FE3B20FFF704FE00212948FFF70EFEDA
:100C2000686901F041F823460C2201F0A5FE00217D
:100C30002046FFF703FE3B20FFF7F2FD002121488D
:100C4000FFF7FCFDAB8B012B07D013B1022B08D0B3
:100C50000AE03020FFF7E4FD06E03120FFF7E0FD79
:100C600002E03220FFF7DCFD3B20FFF7D9FD002139
:100C70001548FFF7E3FD084C0A222146054BD88BA7
:100C800001F0C0FE01212046FFF7D8FD38BD00BFAE
:100C9000344E00085C080020BC3F0020384E00089D
:100CA00000240140642000203C4E0008404E000813
:100CB000584E0008444E0008484E00084C4E0008AC
:100CC000544E00085C4E0008604E00082DE9F843C1
:100CD00094B2144A1485A3421FDD1E468846074677
:100CE00000259146B8F1000F0AD057F824100846A5
:100CF00001F05CFC0146284601F050FB054605E08A
:100D000057F82410284601F049FB05460134A4B2E7
:100D1000A9F82840B442E5DB00E000252846BDE8FC
:100D2000F88300BF5C0800202DE9F84305460C4617
:100D30000B4600220121FFF7C9FF0746204601F0BC
:100D4000E1FB06462346002211462846FFF7BEFF78
:100D5000314601F0DFFC00F0A7FF04460D463146A6
:100D6000384601F0D7FC00F09FFF06460F462246AA
:100D70002B462046294600F0EBFF02460B46304644
:100D8000394600F031FE00F009FD01F0B1FABDE88E
:100D9000F88300BF2DE9F04F85B0804689467B4B34
:100DA0001C8D002C43D10B4601221146FFF78EFF0C
:100DB000824609F1FF364B46012200214046FFF7EB
:100DC00085FF00F071FF04460D46304601F09AFBA6
:100DD00083460146504601F09DFC00F065FFCDE9D9
:100DE000000106FB06F75946504601F093FC00F05F
:100DF0005BFF8046894622462B462046294600F066
:100E0000A7FF04460D46384600F03CFF02460B465D
:100E10002046294601F0C6F802460B4640464946A0
:100E200000F0E2FD00F0BAFC01F062FAABE0164619
:100E30004D1EAC4241D1234600220121FFF746FF5F
:100E400082462346002211464046FFF73FFF00F04E
:100E50002BFF06460F46204601F054FB8346014611
:100E6000504601F057FC00F01FFFCDE9000104FBE4
:100E700004F55946504601F04DFC00F015FF804640
:100E8000894632463B463046394600F061FF064609
:100E90000F46284600F0F6FE02460B46304639461D
:100EA00001F080F802460B464046494600F09CFDA2
:100EB00000F074FC01F01CFA65E0134600220121E9
:100EC000FFF704FF0746741C4B46224601214046AB
:100ED000FFF7FCFE82463346002211464046FFF7EC
:100EE000F5FE06464B46224600214046FFF7EEFE41
:100EF0000146304601F052FA00F0D6FE804689469F
:100F00005146384601F04AFA0446284601F0FAFAFA
:100F100006460146204601F0FDFB00F0C5FECDE986
:100F2000000142464B464046494600F011FFCDE9DC
:100F3000020105FB05F45146384601F02FFA074639
:100F40003146384601F0E6FB00F0AEFE06460F469D
:100F500042464B464046494600F0FAFE80468946E6
:100F6000204600F08FFE02460B464046494601F0FF
:100F700019F802460B463046394600F035FD00F0C0
:100F80000DFC01F0B5F905B0BDE8F08F5C0800205C
:100F900070B506460C46FFF7C7FE054623460022FD
:100FA00011463046FFF792FE0146284601F0B2FB9B
:100FB0000546204601F0A6FA0146284601F0F6FA59
:100FC00070BD00BF000000002DE9F04F87B0052282
:100FD0002F4B1A702F4BDFF8C4B003F114005A46A0
:100FE00053F8041B42F8041B8342F9D14FF0000A66
:100FF000274EDFF8A8904F4634E000252C462246C5
:101000003846FFF7C7FE804631783846FFF78CFE3A
:101010000146404601F086FC40B106AB03EB850378
:1010200059F8242043F8142C0135EDB20134E4B210
:101030003178A142E3D801AA17485B4652F8041B55
:1010400043F8041B8342F9D13570294601A8FFF704
:101050009FFFB5B100F028FE0BA3D3E9002301F0F8
:1010600007F970B1CDF804A0CDF808A0CDF80CA018
:10107000CDF810A0CDF814A0317800250029DAD0E1
:10108000BBE707B0BDE8F08F9A9999999999A93F64
:1010900000000020502000207C200020682000203C
:1010A0002DE9F04F87B09C4B1B7BDBB2012B40F04E
:1010B00016810021984B986901F00CFCB0B1032116
:1010C0000F20FFF741F99548FFF762F9924A13683C
:1010D000D26A9B1A924A934240F2C4808E4B1A689D
:1010E000DA62FFF717FCFFF7F9FCBBE003210F20E2
:1010F000FFF72AF98B48FFF74BF98B4B00221A6058
:101100005A609A60DA601A610022834B1A851F4682
:101110004FF0000BCDF814B0DFF838A23B68049311
:10112000059B3B637B63BB63FB630023FB83BB8348
:101130007E4B7F4C7F48804903F5FA65002223F8F7
:10114000022F44F804BF40F8042F41F804BFAB421B
:10115000F5D10023A7F84030C9E0002C00F0C7808B
:101160003B685AF826209B1A8B4200F2F58042E039
:101170000123BB836EE0B5F54F7F80F01A81FB8BB6
:10118000DBB9484601F0BEF9B96B01F00FFA6B4BC1
:1011900053F8291001F002F9054609F1010001F0A8
:1011A000B1F90146284601F0B5FAB86305E04146B9
:1011B000634B586801F0ACFB40B1FB8B33B1B3F526
:1011C000967F80F025810223BB8343E00134A7F89A
:1011D00040403B68FA6A9B1A514A934203D93B68E4
:1011E000FB62FFF797FBFFF779FCB7F84040A14699
:1011F000661E42F20F71B4F57A7FAED3BB8B4BBB48
:10120000FB8B3BB3B96BF86B01F0C6F8796B01F05F
:1012100081FA0646786400F047FD04460D463AA37D
:10122000D3E9002301F024F8A0B139A3D3E90023C6
:101230002046294600F0FEFF60B13B7B13F0FF0F14
:1012400014BF7E623E623A8D374B43F822603B8D7D
:1012500001333B853B68049A9B1ABB643B8D042B8E
:101260007FF65CAFFFF7B0FE2B4B1B7B13F0FF0F3D
:1012700023D0334C2378002211463248FFF726FD55
:101280000546207801F03EF90146284601F042FA71
:101290000446214B58619D690021284601F01AFB44
:1012A000002840F0BA802946204601F033FA26494A
:1012B00001F07CF9184B1861AFE0214C2378002233
:1012C00011462048FFF702FD0546207801F01AF983
:1012D0000146284601F01EFA0F4B98619DE003215C
:1012E0000F20FFF731F80F48FFF752F805E73B688A
:1012F000CAF80030154BDB6B01939DB2144B1D8077
:10130000B5F54F7F4CD333E73A8C30E28E7945BE4A
:10131000BBBDD7D9DF7CDBBD5C080020644E000874
:10132000A0860100684E0008502000207E18002092
:1013300078200020DC080020183000201C3000201D
:10134000000000206820002000C05A460024014010
:1013500080180020E00800203B6802934AF82930FA
:101360002F4BDA6B019295B22E4B23F81950D7F818
:1013700008802D4B43F8298053F82610404601F091
:101380000BF803905AF82600029B181A01F0B6F8E1
:101390000146039801F0BEF9244B43F82900EAE620
:1013A000D7F80880204BC3F800804FF000094C4666
:1013B000E1E6FD8B284601F0A5F8029001352846AC
:1013C00001F0A0F80646796B029801F0EFF803905F
:1013D000BDF8040001F096F80146039800F0DEFF26
:1013E000314601F097F97863F96B029801F0DEF865
:1013F0000E4B53F8291000F0D1FF314601F08AF965
:10140000F863ADB2FD8340F2E7339D427FF4CFAE87
:10141000BB8B002B3FF4F6AE1CE707B0BDE8F08FA6
:1014200000240140801800207C2000201C30002077
:1014300008B5FFF71FF900210846FEF785FF12489F
:10144000FEF7A6FF01210020FEF77EFF0F48FEF702
:101450009FFF02210020FEF777FF0D48FEF798FF5F
:1014600003210020FEF770FF0A48FEF791FF0A4CA7
:101470000A4D0026236862689B1AAB4288BFA660AB
:10148000FFF70EFEF6E700BF6C4E0008484E00085E
:10149000444E00087C4E00085C08002040420F00CB
:1014A00010B4274B5B6803F00C03042B05D0082B0A
:1014B00006D0F3B9234B03601DE0224B03601AE012
:1014C0001F4A53685268C3F38343023312F4803FC8
:1014D00004D11D4A02FB03F303600CE0184A526872
:1014E00012F4003F14BF184A164A02FB03F30360CC
:1014F00001E0144B0360124A5368C3F30313134C07
:10150000E35CD9B20368CB4043605168C1F3022168
:10151000615CC9B223FA01F181605168C1F3C22153
:10152000615CC9B2CB40C3605268C2F381322244CD
:10153000127CD2B2B3FBF2F3036110BC704700BF60
:101540000010024000127A0000093D00080000204F
:1015500021B1054B9A69104398617047024A93691B
:1015600023EA000090617047001002408379002B4D
:1015700034D010B4204B1A68016822EA01021A60C4
:101580005A68016822EA01025A60027902F1804237
:1015900002F5823214680168214311609A6801687B
:1015A00022EA01029A60DA68016822EA0102DA603E
:1015B0004379102B09D1104B996802680A439A604D
:1015C000D96802680A43DA6013E003F1804303F547
:1015D0008233196802680A431A600AE0037903F14A
:1015E000804303F582331A68016822EA01021A6017
:1015F000704710BC704700BF00040140014B5861A8
:10160000704700BF0004014030B587B004460D4666
:10161000038A9BB223F44053CA881343038282890E
:1016200092B289882B890B4369890B4322F4B0520B
:1016300022F00C0213439BB28381838A9BB223F472
:101640004073AA891343838201A8FFF729FF1A4B2D
:101650009C420CBF049B039BA28912F4004F03EB36
:10166000830303EB8303296814BF49008900B3FB9C
:10167000F1F1124BA3FB012358090501642300FB80
:101680001313A28912F4004F09D0D90032310B4A4A
:10169000A2FB0131C1F3421242EA050307E01B013C
:1016A0003233064AA2FB0323C3F343132B439BB2FB
:1016B000238107B030BD00BF003801401F85EB51CA
:1016C00029B183899BB243F4005383817047838996
:1016D00023F400531B041B0C838170470346054A07
:1016E000126812B90449034A1160024A106803449F
:1016F00013607047A8080020D03F0020F8B5C1F360
:101700000A56A6F2FF35132D0A460B4604468646B6
:1017100011DC002D2EDB0F461F4929410A4225D03E
:101720004FF400232B413B4423EA010300261946D2
:1017300034462046F8BD332D05DDB5F5806F1FD04A
:1017400011462046F8BDA6F213464FF0FF3121FAAC
:1017500006F63042F4D00122C5F1330502FA05F550
:101760002D1828BF9B1825EA0606E0E70028D7D1E8
:101770001146E6E7013501F0004307D00026D6E721
:1017800002460B4600F032F90446D2E743F07F539D
:1017900043F440130026CAE7FFFF0F002DE9F04F86
:1017A0008BB004460D4600F055F8284B064693F9D9
:1017B00000A00F46BAF1FF3F12D022462B4620462A
:1017C000294600F05FFD834650B94FF000084FF006
:1017D00000092046294642464B4600F02BFD20B921
:1017E000304639460BB0BDE8F08F194A0123CDF8D9
:1017F00020B0CDE90445CDE9024501920093BAF14C
:10180000000F15D042464B464046494600F0CAFB01
:10181000BAF1020FCDE906010CD101F0D5F8212370
:101820000360089B63B9DDE906010BB0BDE8F08FEA
:10183000CDE90689684600F0D1F80028F1D1ECE73F
:1018400001F0C2F8089B0360EDE700BF1C00002018
:10185000844E00082DE9F0415F4E0C46B6460E401E
:101860007645054600F0988000290B46024674DD57
:101870005FEA215E7FD0AEF2FF3EC3F313031EF09A
:10188000010F43F4801363D100273E4603EBD2716E
:101890000B444FEA6E0E520016204FF400117418DC
:1018A0009C424FEAD2754FEA420202DC1B1B6618CB
:1018B0000F44013805EB43034FEA5101EFD1844651
:1018C00020244FF0004109E020D003EBD275013C09
:1018D0004FEA51012B444FEA420220D09E4201EBD5
:1018E0000C05F1DA002D05EB010C09DBB046954241
:1018F000A3EB060300D9013B4646521B0844E4E72C
:10190000BCF1000FF2DB06F10108F0E7954217D8B1
:10191000002D05EB010C49DB98460023ECE713434F
:1019200010D140087B1003F17F5303F50013FA0731
:1019300003EB0E57394648BF40F00040BDE8F08148
:101940003346C2E7411C35D000F001031844E8E7F4
:101950005B0003EBD273520096E721F0004606438A
:10196000ECD079BB8E46D30AAEF1150E5205002B92
:10197000F9D0DD0221D4002100E001465B00DC0249
:1019800001F10100F9D5C0F1200422FA04F4234347
:10199000C1EB0E0E82406EE702460B4600F0D8F90E
:1019A0002A46234600F022F8BDE8F081BCF1000F82
:1019B000A9DAB1E701372046B4E720244FF0FF3120
:1019C0000020E2E702460B4600F00EF802460B4606
:1019D00000F0E8FAB2E700BF0000F07F0020704797
:1019E00081F0004102E000BF83F0004330B54FEAD0
:1019F00041044FEA430594EA050F08BF90EA020F3D
:101A00001FBF54EA000C55EA020C7FEA645C7FEACF
:101A1000655C00F0E2804FEA5454D4EB5555B8BFF2
:101A20006D420CDD2C4480EA020281EA030382EA63
:101A3000000083EA010180EA020281EA0303362DF5
:101A400088BF30BD11F0004F4FEA01314FF4801CC8
:101A50004CEA113102D0404261EB410113F0004FDA
:101A60004FEA03334CEA133302D0524263EB430391
:101A700094EA050F00F0A780A4F10104D5F1200E2F
:101A80000DDB02FA0EFC22FA05F2801841F100018A
:101A900003FA0EF2801843FA05F359410EE0A5F15E
:101AA00020050EF1200E012A03FA0EFC28BF4CF08F
:101AB000020C43FA05F3C01851EBE37101F0004545
:101AC00007D54FF0000EDCF1000C7EEB00006EEB52
:101AD0000101B1F5801F1BD3B1F5001F0CD34908DC
:101AE0005FEA30004FEA3C0C04F101044FEA445233
:101AF00012F5800F80F09A80BCF1004F08BF5FEABA
:101B0000500C50F1000041EB045141EA050130BD99
:101B10005FEA4C0C404141EB010111F4801FA4F13C
:101B20000104E9D191F0000F04BF01460020B1FA91
:101B300081F308BF2033A3F10B03B3F120020CDAC9
:101B40000C3208DD02F1140CC2F10C0201FA0CF0A7
:101B500021FA02F10CE002F11402D8BFC2F1200C0C
:101B600001FA02F120FA0CFCDCBF41EA0C019040C2
:101B7000E41AA2BF01EB0451294330BD6FEA04040B
:101B80001F3C1CDA0C340EDC04F11404C4F12002F6
:101B900020FA04F001FA02F340EA030021FA04F308
:101BA00045EA030130BDC4F10C04C4F1200220FA5F
:101BB00002F001FA04F340EA0300294630BD21FA9D
:101BC00004F0294630BD94F0000F83F4801306BF63
:101BD00081F480110134013D4EE77FEA645C18BF57
:101BE0007FEA655C29D094EA050F08BF90EA020FEE
:101BF00005D054EA000C04BF1946104630BD91EAE6
:101C0000030F1EBF0021002030BD5FEA545C05D1E8
:101C10004000494128BF41F0004130BD14F5800427
:101C20003CBF01F5801130BD01F0004545F0FE419B
:101C300041F470014FF0000030BD7FEA645C1ABFD0
:101C4000194610467FEA655C1CBF0B46024650EA07
:101C5000013406BF52EA033591EA030F41F4002133
:101C600030BD00BF90F0000F04BF0021704730B5B9
:101C70004FF4806404F132044FF000054FF000018E
:101C800050E700BF90F0000F04BF0021704730B54F
:101C90004FF4806404F1320410F0004548BF404224
:101CA0004FF000013EE700BF42004FEAE2014FEA79
:101CB00031014FEA02701FBF12F07F4393F07F4F54
:101CC00081F06051704792F0000F14BF93F07F4F86
:101CD000704730B54FF4607401F0004521F00041C9
:101CE00020E700BF50EA010208BF704730B54FF04F
:101CF00000050AE050EA010208BF704730B511F054
:101D0000004502D5404261EB41014FF4806404F18B
:101D100032045FEA915C3FF4DCAE4FF003025FEA0D
:101D2000DC0C18BF03325FEADC0C18BF033202EB95
:101D3000DC02C2F1200300FA03FC20FA02F001FAEF
:101D400003FE40EA0E0021FA02F11444C1E600BF8E
:101D500070B54FF0FF0C4CF4E06C1CEA11541DBF41
:101D60001CEA135594EA0C0F95EA0C0F00F0DEF80C
:101D70002C4481EA030621EA4C5123EA4C5350EAF1
:101D8000013518BF52EA033541F4801143F4801342
:101D900038D0A0FB02CE4FF00005E1FB02E506F0D3
:101DA0000042E0FB03E54FF00006E1FB03569CF028
:101DB000000F18BF4EF0010EA4F1FF04B6F5007F2E
:101DC00064F5407404D25FEA4E0E6D4146EB0606A0
:101DD00042EAC62141EA55514FEAC52040EA5E5029
:101DE0004FEACE2EB4F1FD0C88BFBCF5E06F1ED8D3
:101DF000BEF1004F08BF5FEA500E50F1000041EB0A
:101E0000045170BD06F0004646EA010140EA0200B6
:101E100081EA0301B4EB5C04C2BFD4EB0C0541EAD8
:101E2000045170BD41F480114FF0000E013C00F3ED
:101E3000AB8014F1360FDEBF002001F0004170BD11
:101E4000C4F10004203C35DA0C341BDC04F114042A
:101E5000C4F1200500FA05F320FA04F001FA05F2B6
:101E600040EA020001F0004221F0004110EBD37083
:101E700021FA04F642EB06015EEA430E08BF20EAAF
:101E8000D37070BDC4F10C04C4F1200500FA04F352
:101E900020FA05F001FA04F240EA020001F00041E4
:101EA00010EBD37041F100015EEA430E08BF20EA57
:101EB000D37070BDC4F1200500FA05F24EEA020E9F
:101EC00020FA04F301FA05F243EA020321FA04F0CE
:101ED00001F0004121FA04F220EA020000EBD37085
:101EE0005EEA430E08BF20EAD37070BD94F0000F85
:101EF0000FD101F00046400041EB010111F4801FB9
:101F000008BF013CF7D041EA060195F0000F18BF69
:101F1000704703F00046520043EB030313F4801FA5
:101F200008BF013DF7D043EA0603704794EA0C0F5F
:101F30000CEA135518BF95EA0C0F0CD050EA410675
:101F400018BF52EA4306D1D181EA030101F00041F2
:101F50004FF0000070BD50EA410606BF104619461A
:101F600052EA430619D094EA0C0F02D150EA013626
:101F700013D195EA0C0F05D152EA03361CBF104667
:101F800019460AD181EA030101F0004141F0FE4106
:101F900041F470014FF0000070BD41F0FE4141F48A
:101FA000780170BD70B54FF0FF0C4CF4E06C1CEA8A
:101FB00011541DBF1CEA135594EA0C0F95EA0C0F3F
:101FC00000F0A7F8A4EB050481EA030E52EA0335FA
:101FD0004FEA013100F088804FEA03334FF080551B
:101FE00045EA131343EA12634FEA022245EA111548
:101FF00045EA10654FEA00260EF000419D4208BFF9
:10200000964244F1FD0404F5407402D25B084FEAA5
:102010003202B61A65EB03055B084FEA32024FF451
:1020200080104FF4002CB6EB020E75EB030E22BFAE
:10203000B61A754640EA0C005B084FEA3202B6EB6E
:10204000020E75EB030E22BFB61A754640EA5C001D
:102050005B084FEA3202B6EB020E75EB030E22BFAD
:10206000B61A754640EA9C005B084FEA3202B6EBAE
:10207000020E75EB030E22BFB61A754640EADC006D
:1020800055EA060E18D04FEA051545EA16754FEACF
:1020900006164FEAC30343EA52734FEAC2025FEAED
:1020A0001C1CC0D111F4801F0BD141EA00014FF07C
:1020B00000004FF0004CB6E711F4801F04BF01434D
:1020C0000020B4F1FD0C88BFBCF5E06F3FF6AFAE69
:1020D000B5EB030C04BFB6EB020C5FEA500C50F1F9
:1020E000000041EB045170BD0EF0004E4EEA11317C
:1020F00014EB5C04C2BFD4EB0C0541EA045170BD83
:1021000041F480114FF0000E013C90E645EA060EC6
:102110008DE60CEA135594EA0C0F08BF95EA0C0FF4
:102120003FF43BAF94EA0C0F0AD150EA01347FF43C
:1021300034AF95EA0C0F7FF425AF104619462CE713
:1021400095EA0C0F06D152EA03353FF4FDAE104676
:10215000194622E750EA410618BF52EA43067FF4C7
:10216000C5AE50EA41047FF40DAF52EA43057FF457
:10217000EBAE12E74FF0FF3C06E000BF4FF0010C62
:1021800002E000BF4FF0010C4DF804CD4FEA410CC6
:102190007FEA6C5C4FEA430C18BF7FEA6C5C1BD093
:1021A00001B050EA410C0CBF52EA430C91EA030F14
:1021B00002BF90EA020F0020704710F1000F91EA71
:1021C000030F58BF994208BF90422CBFD8176FEA3F
:1021D000E37040F0010070474FEA410C7FEA6C5C0D
:1021E00002D150EA013C07D14FEA430C7FEA6C5C14
:1021F000D6D152EA033CD3D05DF8040B704700BF40
:102200008446104662468C461946634600E000BF8D
:1022100001B5FFF7B7FF002848BF10F1000F01BD5F
:102220004DF808EDFFF7F4FF0CBF012000205DF82A
:1022300008FB00BF4DF808EDFFF7EAFF34BF0120AF
:1022400000205DF808FB00BF4DF808EDFFF7E0FF48
:1022500094BF012000205DF808FB00BF4DF808ED99
:10226000FFF7CEFF94BF012000205DF808FB00BF00
:102270004DF808EDFFF7C4FF34BF012000205DF8E2
:1022800008FB00BF4FEA410C7FEA6C5C02D150EAC8
:10229000013C0AD14FEA430C7FEA6C5C02D152EA5E
:1022A000033C02D14FF0000070474FF0010070472F
:1022B0004A0011D212F5001211D20DD56FF47873C5
:1022C000B3EB62520ED44FEAC12343F0004343EA1A
:1022D000505323FA02F070474FF00000704750EA65
:1022E000013002D14FF0FF3070474FF000007047CF
:1022F0004FEA4102B2F1E04324BFB3F5001CDCF128
:10230000FE5C0DD901F0004C4FEAC0024CEA50705F
:10231000B2F1004F40EB830008BF20F0010070478E
:1023200011F0804F21D113F13872BCBF01F0004091
:10233000704741F480114FEA5252C2F11802C2F1C3
:10234000200C10FA0CF320FA02F018BF40F0010044
:102350004FEAC1234FEAD32303FA0CFC40EA0C00F6
:1023600023FA02F34FEA4303CCE77FEA625307D133
:1023700050EA01331EBF4FF0FE4040F4400070476A
:1023800001F0004040F0FE4040F40000704700BF04
:1023900080F0004002E000BF81F0004142001FBF1A
:1023A0005FEA410392EA030F7FEA226C7FEA236C23
:1023B0006AD04FEA1262D2EB1363C1BFD218414018
:1023C00048404140B8BF5B42192B88BF704710F0AE
:1023D000004F40F4000020F07F4018BF404211F051
:1023E000004F41F4000121F07F4118BF494292EAB9
:1023F000030F3FD0A2F1010241FA03FC10EB0C00E5
:10240000C3F1200301FA03F100F0004302D5494271
:1024100060EB4000B0F5000F13D3B0F1807F06D31E
:1024200040084FEA310102F10102FE2A51D2B1F116
:10243000004F40EBC25008BF20F0010040EA03000B
:102440007047490040EB000010F4000FA2F10102B8
:10245000EDD1B0FA80FCACF1080CB2EB0C0200FA42
:102460000CF0AABF00EBC25052421843BCBFD04090
:102470001843704792F0000F81F4000106BF80F40A
:1024800000000132013BB5E74FEA41037FEA226CCD
:1024900018BF7FEA236C21D092EA030F04D092F098
:1024A000000F08BF0846704790EA010F1CBF0020CC
:1024B000704712F07F4F04D1400028BF40F0004029
:1024C000704712F100723CBF00F50000704700F049
:1024D000004343F0FE4040F4000070477FEA226270
:1024E00016BF08467FEA23630146420206BF5FEA41
:1024F000412390EA010F40F4800070474FF0000341
:1025000004E000BF10F0004348BF40425FEA000C07
:1025100008BF704743F0964301464FF000001CE0AF
:1025200050EA010208BF70474FF000030AE000BF05
:1025300050EA010208BF704711F0004302D5404243
:1025400061EB41015FEA010C02BF844601460020B5
:1025500043F0B64308BFA3F18053A3F50003BCFAD0
:102560008CF2083AA3EBC25310DB01FA02FC63447D
:1025700000FA02FCC2F12002BCF1004F20FA02F284
:1025800043EB020008BF20F00100704702F1200277
:1025900001FA02FCC2F1200250EA4C0021FA02F2D8
:1025A00043EB020008BF20EADC7070474FF0FF0CDD
:1025B0001CEAD0521EBF1CEAD15392EA0C0F93EAD8
:1025C0000C0F6FD01A4480EA010C400218BF5FEA7A
:1025D00041211ED04FF0006343EA501043EA5111ED
:1025E000A0FB01310CF00040B1F5000F3EBF4900E7
:1025F00041EAD3715B0040EA010062F17F02FD2AEB
:102600001DD8B3F1004F40EBC25008BF20F00100CD
:10261000704790F0000F0CF0004C08BF49024CEAE4
:10262000502040EA51207F3AC2BFD2F1FF0340EA76
:10263000C250704740F400004FF00003013A5DDCE7
:1026400012F1190FDCBF00F000407047C2F1000228
:10265000410021FA02F1C2F1200200FA02FC5FEA15
:10266000310040F1000053EA4C0308BF20EADC705F
:10267000704792F0000F00F0004C02BF400010F4D1
:10268000000F013AF9D040EA0C0093F0000F01F07E
:10269000004C02BF490011F4000F013BF9D041EAA0
:1026A0000C018FE70CEAD15392EA0C0F18BF93EAA2
:1026B0000C0F0AD030F0004C18BF31F0004CD8D1CC
:1026C00080EA010000F00040704790F0000F17BF53
:1026D00090F0004F084691F0000F91F0004F14D099
:1026E00092EA0C0F01D142020FD193EA0C0F03D1F1
:1026F0004B0218BF084608D180EA010000F00040F4
:1027000040F0FE4040F40000704740F0FE4040F4CE
:10271000400070474FF0FF0C1CEAD0521EBF1CEA6D
:10272000D15392EA0C0F93EA0C0F69D0A2EB03028B
:1027300080EA010C49024FEA402037D04FF0805325
:1027400043EA111143EA10130CF000408B4238BFEA
:102750005B0042F17D024FF4000C8B4224BF5B1AF8
:1027600040EA0C00B3EB510F24BFA3EB510340EA46
:102770005C00B3EB910F24BFA3EB910340EA9C00F4
:10278000B3EBD10F24BFA3EBD10340EADC001B0164
:1027900018BF5FEA1C1CE0D1FD2A3FF650AF8B4208
:1027A00040EBC25008BF20F0010070470CF0004C15
:1027B0004CEA50207F32C2BFD2F1FF0340EAC25040
:1027C000704740F400004FF00003013A37E792F001
:1027D000000F00F0004C02BF400010F4000F013A5F
:1027E000F9D040EA0C0093F0000F01F0004C02BF5A
:1027F000490011F4000F013BF9D041EA0C0195E7C3
:102800000CEAD15392EA0C0F08D142027FF47DAF5B
:1028100093EA0C0F7FF470AF084676E793EA0C0F4B
:1028200004D14B023FF44CAF08466EE730F0004C49
:1028300018BF31F0004CCAD130F000427FF45CAFD9
:1028400031F000437FF43CAF5FE700BF4FF0FF3C47
:1028500006E000BF4FF0010C02E000BF4FF0010C9A
:102860004DF804CD4FEA40024FEA41037FEA226C63
:1028700018BF7FEA236C11D001B052EA530C18BF85
:1028800090EA010F58BFB2EB030088BFC81738BFEA
:102890006FEAE17018BF40F0010070477FEA226CD8
:1028A00002D15FEA402C05D17FEA236CE4D15FEAD4
:1028B000412CE1D05DF8040B704700BF8446084608
:1028C0006146FFE70FB5FFF7C9FF002848BF10F1C9
:1028D000000F0FBD4DF808EDFFF7F4FF0CBF01200E
:1028E00000205DF808FB00BF4DF808EDFFF7EAFF98
:1028F00034BF012000205DF808FB00BF4DF808ED53
:10290000FFF7E0FF94BF012000205DF808FB00BF47
:102910004DF808EDFFF7D2FF94BF012000205DF8CD
:1029200008FB00BF4DF808EDFFF7C8FF34BF0120DA
:1029300000205DF808FB00BF42000ED2B2F1FE4F4E
:102940000BD34FF09E03B3EB126209D44FEA00237E
:1029500043F0004323FA02F070474FF00000704745
:1029600012F1610F01D1420202D14FF0FF307047E6
:102970004FF00000704700BFF0B51C4685B0002343
:102980001546002206460F46FFF754FC234698B929
:102990000C4A4FF0000E67211068019300953246F3
:1029A0003B46CDF80CE0029100F0E6F8002814BF99
:1029B0002046002005B0F0BD2D22013D03F8012B7B
:1029C000E6E700BF48040020014B1868704700BFCD
:1029D00048040020931E222B10D80A2A10B506D0D6
:1029E00000230C46194400F00FF8204610BD0028C3
:1029F000F6DA2D230B7040420123F2E70020087025
:102A0000704700BFFFF7E6BFF0B58BB06F461546C5
:102A1000DFF870E004460E46BEE80F000FC7BEE8C0
:102A20000F000FC79EE80300AB1E47F8040B222BD4
:102A3000397022D8711E0846002300E01346B4FB0B
:102A4000F5F205FB12440AAF3C4414F8287C144606
:102A500000F8017F5A1C002CF0D1B454F2184BB18D
:102A6000013411F8015F1778181B84420F7002F8C7
:102A70000159F5DB30460BB0F0BD002030700BB0D3
:102A8000F0BD00BF8C4E0008F0B58BB0109D08ACB7
:102A90006E1C07AF0196049409AE022403970296B8
:102AA00000949DF844600C4600F0AEFD42F20F73B6
:102AB000099F9F4255D003782370129B002B46D06C
:102AC0002E2363704278A31C5AB1002D09DD01301A
:102AD00000E035B103F8012B10F8012F013D002A69
:102AE000F7D1672E39D0472E39D0002D05DD1D4492
:102AF000302103F8011BAB42FBD17A1E46BF524284
:102B00002D212B21632A1E70597003F102030CDD65
:102B10001649D01781FB02416FF06304C0EB6111CD
:102B200004FB01223031197001331149D01781FBA8
:102B300002416FF00904C0EBA10104FB0122002057
:102B4000303130325A70197098700BB0F0BD002DD2
:102B5000B6D1672E04F10103C5D16526CDE7452620
:102B6000CBE70146204600F029FCEEE71F85EB513C
:102B700067666666000000002DE9F04315461C46B6
:102B80008BB006460022002328462146DDF8488007
:102B9000139F9DF85090FFF74DFB002840F0B48044
:102BA0002846214600220023FFF73AFB002840F088
:102BB000A38067A3D3E9002328462146FFF744FBFF
:102BC000002840F08880404600F0DEFB02460B46BD
:102BD00028462146FFF742FB00287CD121462846A3
:102BE00000225D4BFFF726FB2A46234609A908ADC4
:102BF00007ACCDF80480002840F0898004910221C0
:102C0000304603950294009100F0FEFC42F20F73EF
:102C10000799994200F08E800578002D00F08F8092
:102C2000002940F390800A463C46461C00E0CAB1A9
:102C3000013A079204F8015B304616F8015B531A1B
:102C40004344002DF3D1002A0CDD002BC8BF3021F6
:102C500001DC07E02BB1013A04F8011B03F1FF335B
:102C6000F8D10792159A0AB9027872B3A7425DD0DB
:102C7000079D2E22002D227004F101020CDA002B98
:102C80004FDD302101E0002B4AD0013502F8011B55
:102C900003F1FF33F7D1079504785CB1002B02DC18
:102CA00042E0002B40D002F8014B10F8014F013BED
:102CB000002CF6D11599002936D0002B34DDD4181C
:102CC000302302F8013B9442FBD1384600232370A5
:102CD0000BB0BDE8F08308F1FF31009115992A4649
:102CE00002912346CDF8049030463946FFF7CCFEDA
:102CF00038460BB0BDE8F0833846302200233A70E6
:102D00007B700BB0BDE8F08304F1004448E7049108
:102D10000321304603950294009100F075FC75E79D
:102D2000079501780029C5D01446CEE730223A70C5
:102D30007C1C9DE70146384600F040FBD8E70A4678
:102D400043463C467FE743463C468BE7AFF3008073
:102D50002D431CEBE2361A3F0000F03FC26C70B509
:102D600005460C4652B152F824308BB1196842F82E
:102D70002410002218461A61DA6070BD2122042155
:102D800000F07AFBE86402460028ECD1002070BD18
:102D9000012101FA04F6721D2846920000F06CFB36
:102DA00003460028F2D044608660E2E731B1C36C8C
:102DB0004A6853F82200086043F82210704700BFA9
:102DC000F0B50C4605460E6983B001F1140E0027DC
:102DD000DEF80000013781B202FB0131000C0B0C60
:102DE00002FB003389B201EB0341BE424EF8041BE3
:102DF0004FEA1343ECDC3BB1A268964207DA04EBDE
:102E00008602013653612661204603B0F0BD616839
:102E1000284601310193FFF7A1FF0746226904F11B
:102E20000C01023292000C3001F0F6FEEA6C61688F
:102E3000019B52F82100206042F821403C46DEE729
:102E4000030C1B04B3B90004102310F07F4F04BF20
:102E50000002083310F0704F04BF0001043310F07B
:102E6000404F04BF80000233002807DB420003D438
:102E7000202070470023E8E7581C70471846704729
:102E8000036813F0070207D0D90720D49A0720D48B
:102E90009B0803600220704799B209B91B0C1022ED
:102EA00013F0FF0F04BF1B0A0832190704BF1B09E8
:102EB0000432990704BF9B080232D90704D45B0887
:102EC00001D1202070470132036010467047002076
:102ED00070475B0803600120704700BF10B50C46C7
:102EE0000121FFF73BFF01224461026110BD00BFD9
:102EF0002DE9F04F0D69166985B0B5420C46914633
:102F000004DA2A464C46354689461646A36805EB40
:102F1000060861689845C8BF0131FFF71FFF00F13F
:102F2000140A0AEB880BDA45019005D253460021BA
:102F300043F8041B9B45FBD809F1140909EB8603F0
:102F400004F11402994502EB850C59D2CDF808B072
:102F5000CDF80C809B46904659F8047B1FFA87FEFB
:102F6000BEF1000F1FD047465646002100E006463E
:102F7000304657F8045B3468ABB2A2B20EFB0322B2
:102F80002D0C240C0EFB0544531804EB13419AB28C
:102F900042EA0142BC454FEA114140F8042BE6D811
:102FA000716059F8047C3F0C22D0DAF8003000221E
:102FB00055461E464046964600E025462C46028869
:102FC000360C07FB026699B206EB0E0241EA024399
:102FD00044F8043B50F8041B6E68090CB3B207FBBD
:102FE0000131844501EB12434FEA134EE5D86B6083
:102FF000CB450AF1040AAFD8DDF808B0DDF80C8043
:10300000B8F1000F0BDD5BF8043CABF1040B1BB116
:1030100005E05BF8043D13B9B8F10108F9D1019856
:10302000C0F8108005B0BDE8F08F00BF12F00303B8
:103030002DE9F041144607462ED10E46A4101CD0AF
:10304000BD6C95B3E3074FF0000806D4641014D0AC
:103050002868A8B10546E307F8D52A463146384620
:10306000FFF746FFB6B17268FB6C641053F822108C
:10307000316043F822600646EAD13046BDE8F0816F
:103080002A4629463846FFF733FF2860C0F80080FB
:103090000546E0E70646D9E70B4A013B52F82320F4
:1030A0000023FFF78DFE0646C8E701213846FFF7EB
:1030B00055FE40F271210122002341610261054663
:1030C000B8640360BEE700BF804F00082DE9F84FE9
:1030D0000B69541104EB03088B6808F101059D424C
:1030E0000E4691468346496804DD5B009D4201F12E
:1030F0000101FADC5846FFF731FE002C00F1140202
:1031000037DD02EB8403002142F8041B9342FBD11C
:10311000346906F1140119F01F0901EB840E20D067
:10312000C9F1200C00240F681A4607FA09FA4AEA86
:10313000040443F8044B51F8044B8E4524FA0CF474
:10314000F1D854600CB108F10205DBF84C3072681C
:10315000013D53F822100561316043F82260BDE85B
:10316000F88F043B51F8042B8E4543F8042FF9D80F
:10317000EBE71346CCE700BF02690B69D21A12D104
:103180009B0014301431194410B4034401E09842F8
:103190000BD253F8044D51F8042D9442F7D007D3C5
:1031A000012010BC704710467047002010BC7047CB
:1031B0004FF0FF30F5E700BF2DE9F0470B690C46F3
:1031C000116990465B1A002B18D1890004F114068E
:1031D00002F114077318394401E09E4269D253F892
:1031E000045D51F8042D9542F7D06BD22346B246C8
:1031F00044463E4698464FF0010906E066DB04F17E
:10320000140602F1140A4FF000096168FFF7A6FDE9
:103210005546D4F810E0D8F810303746C0F80C9076
:103220000AEB830C06EB8E0600F114044FF0000944
:1032300057F8042B55F8041B1FFA82F808EB090312
:103240001FFA81F8090CC8EB0303C1EB124202EB31
:1032500023429BB243EA0243AC4544F8043B4FEAA5
:103260002249E5D8BE4218D9A046BC465CF8042BDA
:1032700095B205EB09010B1403EB12428BB243EA42
:103280000243664548F8043B4FEA2249EED8FF4323
:10329000374427F0030704373C44043C2BB954F867
:1032A000043D0EF1FF3E002BF9D0C0F810E0BDE860
:1032B000F0870021FFF752FD0122002302614361E4
:1032C000BDE8F087BA464FF000099EE7234604F1B7
:1032D000140A08F1140644464FF00109984694E791
:1032E000F0B5012183B01C46C3F30A551646FFF71B
:1032F00035FDC4F3130407460DB144F48014019462
:1033000006B302A840F8086DFFF7BAFD002830D1D7
:103310009DE80C007A61002B0CBF01210221BB61EA
:103320003961D5B9089A07EB8103A0F232401060E9
:103330001869FFF785FD099BC0EB411018603846FE
:1033400003B0F0BD01A8FFF79BFD019B01221146D0
:1033500020303A617B61002DE4D0A5F23343089A16
:1033600003441360099BC0F135001860384603B070
:10337000F0BD019BC0F12001009A03FA01F10A435C
:10338000C34001937A61C6E7172810B5044608DDEB
:10339000074900200022074BFEF7DAFC013CF9D177
:1033A00010BD054B03EBC004D4E9000110BD00BF04
:1033B0000000F03F00002440B84E000880EA0102FF
:1033C000844612F0030F4FD111F0030F32D14DF8A4
:1033D000044D11F0040F51F8043B0BD0A3F101325E
:1033E0009A4312F0803F04BF4CF8043B51F8043B71
:1033F00016D100BF51F8044BA3F101329A4312F0E9
:10340000803FA4F101320BD14CF8043BA24312F0EF
:10341000803F04BF51F8043B4CF8044BEAD02346EC
:103420000CF8013B13F0FF0F4FEA3323F8D15DF89E
:10343000044B704711F0010F06D011F8012B0CF866
:10344000012B002A08BF704711F0020FBFD031F8DE
:10345000022B12F0FF0F16BF2CF8022B8CF8002065
:1034600012F47F4FB3D1704711F8012B0CF8012BE8
:10347000002AF9D1704700BF10B502FB01F101F03D
:103480001FF90446D8B150F8042C22F00302043A84
:10349000242A18D8132A14D900231B2A0360436056
:1034A00016D9242A8360C36011BF00F110020361A2
:1034B000436100F1180200231360536093602046BB
:1034C00010BD0246F7E7002101F01CFC204610BDAC
:1034D00000F10802EFE700BF2DE9F04F03690F6923
:1034E00083B09F4200F38980013F01F1140600F18F
:1034F000140A56F827305AF827200133B2FBF3F8A4
:10350000BB00009306EB030953440193B8F1000F8D
:103510003BD000231C46B446D6465CF804BBDEF81C
:1035200000501FFA8BF208FB02324FEA1B4B130CC0
:1035300008FB0B3392B2A41A1FFA83FBAAB22244EF
:10354000CBEB154404EB224492B242EA0442E1453B
:103550004EF8042B4FEA24444FEA1343DDD2009B7C
:103560005AF803308BB9019C231F9A450CD254F8AA
:10357000043C4BB9A4F1080302E01A68043B1AB9F1
:103580009A4507F1FF37F8D307610446FFF7F4FDCA
:1035900000282EDB00235546194608F1010856F88D
:1035A000042B2B6890B2081A120C99B2C2EB134389
:1035B000421803EB224392B242EA0342B14545F876
:1035C000042B4FEA2341EAD25AF827200AEB87035B
:1035D0007AB91A1F92450BD253F8042C42B9083B12
:1035E00002E01A68043B1AB99A4507F1FF37F8D38D
:1035F0002761404603B0BDE8F08F002003B0BDE86E
:10360000F08F00BF000000002DE9F04F016C99B071
:10361000814692469B46259C49B1426C01239340CA
:103620008B604A60FFF7C2FB0023C9F84030BBF152
:10363000000FD84633DB00232360A34B1A4608EA69
:103640000303934214D00022002350465946FEF74C
:10365000E7FD054648B3249A01231360269B002BFF
:1036600000F0C58099481860013819B0BDE8F08FA6
:1036700042F20F73249A1360BAF1000F00F0A28097
:103680009348269B002BF0D0C378002B00F0B1802C
:1036900000F10803269A136019B0BDE8F08F0123EA
:1036A0002BF000482360C346C7E716AA17AB019268
:1036B000009352465B464846FFF712FE5FEA1854F5
:1036C000099040F08880169D179C2C4404F23243E8
:1036D000202B40F38A82C3F1400304F2124008FA1F
:1036E00003F82AFA00F040EA0800FEF7BBFA0123CB
:1036F000013CA1F1F8710F930022764BFEF774F9AB
:103700006BA3D3E90023FEF723FB6BA3D3E90023CC
:10371000FEF76CF9064620460F46FEF7B3FA68A39B
:10372000D3E90023FEF714FB02460B463046394628
:10373000FEF75CF906460F4601F048FB00220390B5
:10374000002330463946FEF775FD002840F02982F7
:10375000039E162E00F222825F49524601EBC601FB
:103760005B46D1E90001FEF783FD002800F04282AC
:10377000731E039300230D932C1B631E049300F10F
:103780002B8200230693039B002BC0F21C82049A19
:103790000C9311461944002304910B93229B092B8F
:1037A00029D8052B40F35286043B22930025229B07
:1037B000023B032B00F22F86DFE813F027032002E1
:1037C00032035304424B454AC8F31300002814BF88
:1037D0001846104655E7CBF3130343F07F510F957E
:1037E0005046A4F2FF3441F44011169D84E73C4852
:1037F0003BE7C31C4EE70021C9F84410484622911C
:10380000FFF7ACFA4FF0FF33229A07930E93012390
:1038100008902392C9F840000A93179B002BC0F22E
:10382000CA80039A0E2A00F3C6802B4B03EBC20317
:1038300018CBCDE90434239B002BC0F2FC82564602
:103840005F46DDE904AB304652465B463946FEF73B
:10385000A9FB01F0BBFA0446FEF714FA52465B4698
:10386000FEF776FA02460B4630463946FEF7BCF8BC
:10387000079E089F04F13005012E3D7002460B465D
:1038800007F101055ED00022164BFEF761FA002217
:10389000002306460F46FEF7C3FC002878D1CDF87A
:1038A0001890DDF81CA0DDF820B0DDE9048928E0DF
:1038B00061436F63A787D23FB3C8608B288AC63F36
:1038C000FB799F501344D33F0000F07F294E00083E
:1038D000C44F00080000F83FB84E0008B84F000879
:1038E000284E0008000024400022C34BFEF730FAA7
:1038F0000022002306460F46FEF792FC002840F007
:10390000B38342464B4630463946FEF74BFB01F047
:103910005DFA0446FEF7B6F942464B46FEF718FA42
:1039200002460B4630463946FEF75EF804F1300693
:1039300005F8016BCBEB0506564502460B46D3D185
:10394000DDF8189010461946FEF750F806460F4667
:1039500002460B46DDE90401FEF76CFC40B9DDE9E7
:10396000040132463B46FEF75BFC88B1E3070FD506
:1039700015F8014C6B1E089A04E09A4200F02C8462
:1039800013F8014D392C03F10105F6D001341C70F8
:1039900009994846FFF70AFA0022039B2A70249AE5
:1039A00001331360269B002B00F0A88308981D604C
:1039B00019B0BDE8F08F0A9A002A00F01281229A0D
:1039C000012A40F35A82079B0B9A5F1EBA42C0F24B
:1039D0009883D71B079B002BC0F28C84069D079B06
:1039E000069A01211A440692049A48461A440492FF
:1039F000FFF774FA064665B1049900290B4608DD05
:103A0000A942A8BF2B46069AED1AD21ACB1A0692E3
:103A100004930B9B002B40F3FD820A9A002A00F0CE
:103A20000382002F00F0008231463A464846FFF7F5
:103A3000FDFADDF824800146424606464846FFF777
:103A400057FA414604464846FFF7B0F90B9BDB1B8B
:103A50000B9340F0E88101214846FFF73FFA0C9BA9
:103A60008046002B00F01B8201461A464846FFF7AD
:103A7000DDFA229B8046012B40F3F9820027D8F81B
:103A8000103008EB83031869FFF7DAF9C0F1200062
:103A9000049A104410F01F0000F0F881C0F12003D8
:103AA000042B40F3CB84069BC0F11C000344069317
:103AB0001346034405440493069B002B05DD214671
:103AC0001A464846FFF702FB0446049B002B05DD1F
:103AD00041461A464846FFF7F9FA80460D9B002BEF
:103AE00040F07D82079B002B40F396820A9B002BBF
:103AF00040F0F681DDF820A0079F554604E02146FE
:103B00004846FFF75DF9044641462046FFF7E4FCCE
:103B1000303005F8010BCAEB0503BB424FF00A0237
:103B20004FF00003EBDB089B079A8246012AACBFEB
:103B30009B1801331D464FF0000B214601224846D9
:103B4000FFF7C4FA41460990FFF716FB002840F33F
:103B50000E8315F8012C6B1E089904E08B4200F0CF
:103B6000798213F8012D392A03F10105F6D00132CB
:103B70001A7041464846FFF719F9002E3FF408AF86
:103B8000BBF1000F05D0B34503D059464846FFF7B7
:103B90000DF931464846FFF709F9F9E601230D937F
:103BA000EAE5DDF80C804046FEF76CF802460B466D
:103BB00030463946FEF734FB00287FF4C9AD08F1E2
:103BC000FF330393C4E5069A039BD21A5B420B931F
:103BD000002306920C93E1E55B42069300230493D5
:103BE000D1E50B9F069D0A9E05E7C3F120080AFA5E
:103BF00008F07AE50D90BFE50000244000230A9309
:103C0000039B239A13440E930133002B079340F335
:103C10008582079C26460021172EC9F844100BD92F
:103C2000012204235B0003F11400B042114602F1AB
:103C30000102F7D9C9F844104846FFF78FF80E2C57
:103C40000890C9F840003FF6E8AD002D3FF4E5AD1F
:103C50005746D8460399CDE91078002940F393825E
:103C6000924B01F00F020E1103EBC203F006D3E9F1
:103C7000004540F14E828E4B5046D3E90823594609
:103C8000FEF790F982468B4606F00F064FF00308C8
:103C900086B1874FF10709D5D7E900232046294689
:103CA000FEF756F804460D4608F10108761007F1B4
:103CB0000807EFD122462B4650465946FEF772F9C7
:103CC00006460F460D9B43B100227A4B30463946DB
:103CD000FEF7B0FA002840F023834046FDF7D2FFFC
:103CE00032463B46FEF734F8734B0022FDF77EFE6A
:103CF000079B0446A1F15075002B00F0E181039B66
:103D00001393079B12930A9B002B00F09882129A40
:103D1000664B002003EBC20353E902236749FEF719
:103D200041F922462B46FDF75FFE82468B46304620
:103D3000394601F04BF80446FDF7A4FF02460B4656
:103D400030463946FDF750FE3034089DE4B2064651
:103D50000F462C7002460B46504659460135FEF779
:103D600087FA00284ED132463B4600205149FDF7E4
:103D70003BFE02460B4650465946FEF779FA0028AC
:103D800040F00E83129A012A40F3B481129B089AE4
:103D9000134498460FE032463B4600204549FDF764
:103DA00023FE52465B46FEF745FA002840F0F882B3
:103DB000454500F09F81504659460022404BFDF793
:103DC000C7FF00223E4B82468B4630463946FDF700
:103DD000BFFF0F46064600F0F9FF0446FDF752FF0D
:103DE00002460B4630463946FDF7FEFD3034E4B25C
:103DF00005F8014B52465B4606460F46FEF71AFA97
:103E00000028C8D0139B0393C2E500230A93239B89
:103E1000002B40F388811E461C460E930793FAE65A
:103E200001230A93F3E709940B9A09994846FFF78F
:103E3000FDF804460FE6079B002B3FF700AD40F06E
:103E4000D982DDE9040100221E4BFDF781FF5246B5
:103E50005B46FEF703FADDF81C804646002800F0BA
:103E6000F180239B089DDB43039341464846FEF7C0
:103E70009DFF002E3FF48CAD8BE60F9A002A00F0D8
:103E8000418203F233430B9F069DA9E51C20069B4C
:103E9000054403440693049B034404930CE6229BCD
:103EA000012B40F381820C9F0120F1E5B84E000800
:103EB000904F00080000F03F00001C400000E03F71
:103EC0000000244000001440314600230A224846E6
:103ED000FEF776FF0E9B0646002B40F39782079372
:103EE000002D05DD31462A464846FFF7EFF8064625
:103EF000002F40F07B810696079B089A013BD31860
:103F0000099317460AF00103C246DDF818B00A9378
:103F100051462046FFF7E0FA314605462046FFF7B6
:103F20002BF95A46049051464846FFF745F9C268B6
:103F3000804605F13003002A49D101462046079307
:103F4000FFF71AF9414606904846FEF72FFF069AFA
:103F5000079B2AB9229919B90A99002900F03682DB
:103F600004990029C0F2E48005D1229919B90A996F
:103F7000002900F0DD80002A00F34C81099A07F146
:103F8000010897423B70454600F0538121460023CB
:103F90000A224846FEF714FF5E45044631464FF0BC
:103FA00000034FF00A0248460BD0FEF709FF5946BE
:103FB000064600230A224846FEF702FF474683468C
:103FC000A6E7FEF7FDFE474606468346A0E7014604
:103FD00048460693FEF7EAFE0122069BC0E74146EB
:103FE0002046FFF7C9F80028BFF67CAD2146039CA8
:103FF0000023013C0A2248460394FEF7E1FE0A9B97
:104000000446002B7FF460AF0E9B002B40F3F6813B
:1040100007936FE5099C1EE5229B022B7FF766AD97
:10402000079B002B40F07A81414605224846FEF767
:10403000C7FE014680462046FFF79EF800280994F7
:104040007FF70FAF039A08993123013203920B7067
:104050004D1C0AE7039A312301320392089A137028
:1040600087E501230A93CBE5DDF8189090E4BAF1D7
:10407000000F7FF403ADCBF31303002B40F040811E
:104080002BF000473F0D3F0537B1069B0127013359
:104090000693049B013304930C9B0120002B3FF4F7
:1040A000F7ACECE44046FDF7EDFD32463B46FDF74C
:1040B0004FFE0022BF4BFDF799FC0446A1F150755D
:1040C000304639460022BC4BFDF78EFC22462B467B
:1040D00006460F46FEF7CCF88046002840F00681E1
:1040E000224605F1004330463946FEF7A3F808B1F1
:1040F0004646B6E6DDE910ABFFF78FBB0898FFF741
:10410000B4BA0B9B0C9AFB1A1A440B970C9200271B
:1041100060E4DDE910AB4FF00208B9E51C46002170
:10412000C9F8441088E5012423940E940794F6E717
:10413000002AD046CDF818B09A4611DD214601225A
:104140004846FEF7C3FF41460446FFF715F800282E
:1041500040F34981BAF1390F00F0078105F1310AC6
:10416000B34687F800A07D1C069E099401E504D1A2
:104170001AF0010F01D0ECE4154615F8013C6A1E57
:10418000302BF9D0F5E4039B5C42002C00F0C18099
:10419000DDE91001894B04F00F0203EBC203D3E900
:1041A0000023FDF7D5FD241106460F4600F02B81B4
:1041B000834D4FF00208E20709D5D5E900233046C8
:1041C0003946FDF7C5FD06460F4608F101086410A3
:1041D00005F10805EFD175E5089930220A70039AB8
:1041E00015F8014C01320392FFF7D0BB71684846C5
:1041F000FEF7B4FD0546336906F10C019A1C9200E6
:104200000C3000F009FD294601224846FEF75EFF0A
:10421000069071E6392BCDF818B0D04600F0A58095
:1042200003F1010AB34687F800A07D1C069E09949D
:104230009FE45A46D046B3469A4616467DE4129B02
:104240005E4903F1FF3A01EBCA012246D1E90001C0
:104250002B46FDF77DFDCDE914013946304600F0CF
:10426000B5FD0446FDF70EFD0B46024639463046C5
:10427000FDF7BAFB129B0F4608993034012B064616
:104280000C7001F101051FD0129B089AA846134437
:104290009B4600224B4B30463946FDF759FD0F46F1
:1042A000064600F093FD0446FDF7ECFC02460B4683
:1042B00030463946FDF798FB303408F8014BC345CA
:1042C00006460F46E5D1554400223F4BDDE9140177
:1042D000FDF78CFB32463B46FDF7ACFF00284CD087
:1042E000139B039315F8014CFFF744BB4FF00008F4
:1042F0004646A7E6069B079A9D1A0023FFF770BB68
:104300000027C9E6169B0B9FC3F13603069DFFF7F6
:1043100067BBDDE910674FF00208D3E40994A0E51C
:10432000079B002B3FF4BEAE0E9B002B7FF7E2AE47
:104330000022244B30463946FDF70AFD06460F465B
:1043400008F10100FDF79EFC32463B46FDF700FDFB
:104350000022184BFDF74AFB039A0E9B013A0446D4
:104360001392A1F150751293CDE43922B34609940A
:10437000069E3A707D1CFFF7EEBBDDE9142300209A
:104380001149FDF731FB32463B46FDF771FF08B995
:10439000B0E6154615F8013C6A1E302BF9D031E520
:1043A000139B0393FFF7E6BABAF1000F7FF47BADDE
:1043B00061E600BF00001C4000001440B84E000839
:1043C000904F0008000024400000E03F392BCDF85A
:1043D00018B0D046DDF810B09A46C6D0BBF1000F39
:1043E0003FF7BCAEBCE67FF4BBAE1AF0010F3FF462
:1043F000B7AEAFE64FF00008464632E5229B022BEF
:1044000021DC0E9B04E64FF002085BE4229B022BAA
:1044100019DC0E9B63E50024C9F844402146484658
:10442000FEF79CFC4FF0FF3307930E930123089097
:104430002394C9F840000A93FFF7EFB93FF43CAB6F
:10444000C0F13C0023E50E9B0793E9E50125FFF74A
:10445000AEB900BFF8B50C46224F064600F0A0FCEE
:10446000BB685D6825F00305291B01F6EF7121F497
:104470007F6121F00F01A1F58054B4F5805F07DB67
:104480000021304600F090FCBB682B44984204D0D9
:10449000304600F087FC0020F8BD6142304600F055
:1044A00083FC01300DD0104BBA6819682D1B45F004
:1044B00001053046091B5560196000F073FC0120AE
:1044C000F8BD0021304600F06FFCBA68831A0F2B4C
:1044D000DEDD064C0449246843F00103001B5360F1
:1044E0000860D5E74C040020B808002058080020D8
:1044F000002945D02DE9F0410D46804600F050FCE2
:1045000055F8047C6A49A5F1080427F00103E21874
:104510008E685068B24220F0030062D0FE075060FF
:104520000BD455F8087C01F1080EE41BA5683B4448
:1045300075456FD0E768EF60BD6015186D68ED07D1
:1045400042D543F001026260E350B3F5007F18D218
:10455000DB0848689D100122013351F8337002FADC
:1045600005F501EBC3022843083AE260A760486002
:1045700041F83340FC604046BDE8F04100F012BC19
:1045800070475A0A042A53D89A0902F139077F0062
:1045900002F1380501EB870051F8272008389042D6
:1045A00043494DD0516821F003018B4202D29268F9
:1045B0009042F7D1D068E060A2608460D460404649
:1045C000BDE8F04100F0EEBB95683A4F0344BD42B0
:1045D0003FD0D06843F00102E86085606260E3503C
:1045E000B3E7FF07034407D455F8085C641BE2688F
:1045F000A0682B44C26090602F4A43F0010012680B
:10460000606093428C60B6D32C4B40461968FFF72C
:1046100021FFB0E711184968C90744D491680344E1
:10462000D26843F00100CA6091606060E350A2E785
:10463000142A17D802F15C077F0002F15B05A9E795
:10464000AA104B68012505FA02F213434B6002469B
:10465000B1E743F001024C610C61E560A560626066
:10466000E35088E7542A06D81A0B02F16F077F003F
:1046700002F16E058EE7B2F5AA7F06D8DA0B02F1D9
:1046800078077F0002F1770584E740F254508242B8
:1046900006D89A0C02F17D077F0002F17C0579E7CC
:1046A000FE277E2576E743F001026260E35062E771
:1046B0004C0400205404002054080020B4080020BA
:1046C0002DE9F04F01F10B05162D83B0064640F29F
:1046D000A08035F0070500F1C080A94200F2BD803E
:1046E00000F05EFBB5F5FC7FC0F090826B0A00F035
:1046F000BB80042B00F27781A80900F1390E4FEA44
:104700004E013830BE4F07EB81014C680839A14299
:1047100007D1AEE0002A80F2AE80E468A14200F04A
:10472000A880636823F003035A1B0F2AF2DDB44903
:104730003C6901F1080E744500F0A881636823F01C
:1047400003035A1B0F2A00F38E81002AC1F814E0DC
:10475000C1F810E080F29380B3F5007F80F05C81B7
:10476000DB084A684FEAA3094FF0010C013351F806
:1047700033800CFA09F901EBC30C49EA0202ACF1EF
:10478000080CC4F80CC0C4F808804A6041F83340F3
:10479000C8F80C40831001249C4094427CD81442F9
:1047A00006D120F003006400144200F10400FAD0A6
:1047B00007EBC009CC468046DCF80C108C4507D1CD
:1047C00066E1002A80F27481C9688C4500F060813E
:1047D0004B6823F003035A1B0F2AF2DD0C46CB680B
:1047E00054F808CF45F00108C1F804800D4442F0A8
:1047F0000101CCF80C303046C3F808C07D613D6142
:10480000C5F80CE0C5F808E06960AA5000F0CAFAE3
:104810001FE0102921D800F0C3FA1025062302203A
:10482000774F07EB83035C68A3F10802944200F022
:1048300038816368E16823F0030323445A68A5685C
:1048400042F00102E96030468D605A6000F0AAFA39
:104850000834204603B0BDE8F08F002420460C2326
:10486000336003B0BDE8F08F80214FF0400E3F2051
:1048700048E770465BE723445A68E168DFE7234472
:104880005A68304642F001025A60083400F08AFA51
:10489000204603B0BDE8F08FBC68636823F00308CE
:1048A000A84504D3C5EB08030F2B00F38C80554BB0
:1048B000DFF860911A68D9F800302A44013304EB1C
:1048C000080A00F0608102F580520F3222F47F6204
:1048D00022F00F0211463046019200F065FAB0F165
:1048E000FF3F8346019A00F05881824500F2FC8028
:1048F000454BDA4519681144196000F05381D9F825
:104900000000DFF810E101301BBFCAEB0B0A514475
:10491000CEF800B019601BF0070100F01781C1F15B
:104920000800C1F58051834408315A44C2F30B0298
:10493000C2EB010949463046019300F035FA431CA9
:10494000019B00F03F81CBEB00024A4442F00102A0
:104950001968BC424944C7F808B01960CBF8042074
:10496000DFF8A49016D0B8F10F0F40F2FD80626816
:10497000A8F10C0323F0070302F00102E0184FF046
:10498000050E1A430F2B6260C0F804E0C0F808E07F
:1049900000F21C811D4BBC681A68914288BF1960E7
:1049A0001B4B1A689142626888BF196022F00302AB
:1049B0009542A2EB050301D80F2B04DC304600F032
:1049C000F1F9002445E745F0010243F001032544D5
:1049D00062603046BD6008346B6000F0E3F9204649
:1049E00003B0BDE8F08F142B71D9542B00F2A480D2
:1049F000280B00F16F0E4FEA4E016E3082E600BFC9
:104A00004C040020B4080020B8080020B0080020A2
:104A1000AC080020580800205A0A042A5ED9142A3B
:104A200000F2B38002F15C0149005B3207EB810CBC
:104A300057F82110ACF1080C8C45DFF8D88100F054
:104A400088804A6822F00302934202D289688C452A
:104A5000F7D1D1F80CC07A68C4F80CC0A160CCF8CA
:104A60000840CC6096E645F0010742F0010325447A
:104A7000676030464D610D61C5F80CE0C5F808E08F
:104A80006B60AA50083400F08DF9E2E64A6881E6CE
:104A900008F1010818F0030F0CF1080C7FF48CAE3C
:104AA00030E0DC68A34208BF02303FF440AEC0E60D
:104AB0000C460B445A68C96854F8085F42F001027A
:104AC0005A603046E9608D6000F06CF9C1E603F190
:104AD0005C0E03F15B004FEA4E0113E69A0902F106
:104AE000390149003832A1E7BC424A4B3FF400AFDC
:104AF0009C68626822F003025AE759F80839994520
:104B000040F0828010F0030F00F1FF30F5D17B6898
:104B100023EA04037B6064009C423FF6BDAE002C98
:104B20003FF4BAAE1C4240467FF442AE64001C42E1
:104B300000F10400FAD03BE6B3F5AA7F18D8E80BE1
:104B400000F1780E4FEA4E017730DBE54FF48051EB
:104B5000EBE60121D8F80430921001FA02F21A4370
:104B6000C8F80420614677E70123CBF8043025E735
:104B700040F25452934220D8A80C00F17D0E4FEA27
:104B80004E017C30BEE51032A4E6542A26D81A0B1A
:104B900002F16F0149006E3248E7BC68626822F09A
:104BA000030205E7CAF30B0000287FF4A8AE4244D5
:104BB000BB6842F001025A60ECE6FE214FF07F0E26
:104BC0007E209FE501224FF00009C1E604F10801B3
:104BD0003046FFF78DFCD9F80010DBE6B2F5AA7F6E
:104BE00005D8DA0B02F17801490077321EE740F26E
:104BF00054518A4205D89A0C02F17D0149007C3259
:104C000014E7FE217E2211E77B6884E7E808431C55
:104C10005B0005E64C040020844641EA000313F0E3
:104C2000030349D1403A23D30B6803604B684360C8
:104C30008B688360CB68C3600B6903614B69436118
:104C40008B698361CB69C3610B6A03624B6A436200
:104C50008B6A8362CB6AC3620B6B03634B6B4363E8
:104C60008B6B8363CB6BC36340304031403ADBD204
:104C700030320BD30B6803604B6843608B688360F2
:104C8000CB68C36010301031103AF3D20C3205D328
:104C900051F8043B40F8043B043AF9D2043208D0FE
:104CA000D2071CBF11F8013B00F8013B01D30B8870
:104CB00003806046704700BF082A13D38B07B1D02A
:104CC00010F00303AED0C3F10403D21ADB071CBFFC
:104CD00011F8013B00F8013BA4D331F8023B20F866
:104CE000023B9FE7043AD9D3013A11F8013B00F89F
:104CF000013BF9D20B7803704B7843708B7883704B
:104D00006046704770B4840746D0541E002A41D0D4
:104D1000CDB2034602E0621EE4B3144603F8015B21
:104D20009A07F8D1032C2ED9CDB245EA05250F2CD0
:104D300045EA054519D9264603F11002103E0F2E0B
:104D400042F8105C42F80C5C42F8085C42F8045CE3
:104D500002F11002F2D8A4F1100222F00F0204F0C6
:104D60000F041032032C13440DD91E462246043A78
:104D7000032A46F8045BFAD8221F22F00302043209
:104D8000134404F003042CB1C9B21C4403F8011B02
:104D9000A342FBD170BC704714460346C2E700BF74
:104DA000704700BF704700BF38B5074C0023054669
:104DB00008462360FCF792FC431C00D038BD2368F2
:104DC000002BFBD02B6038BDCC3F00204FEA4102C6
:104DD00012F5001215D211D56FF47873B3EB62524D
:104DE00012D94FEAC12343F0004343EA505311F074
:104DF000004F23FA02F018BF404270474FF0000006
:104E0000704750EA013005D111F0004008BF6FF043
:104E1000004070474FF00000704700BF20000000C6
:104E20004300000057000000300000003100000087
:104E300032000000543D0000503D0000563D00008F
:104E40004D3D00004B3D00004D6B3D0061764B46F3
:104E50003D00000061764D4B463D0000533D000093
:104E6000473D00004552520057726B00503D2020D4
:104E7000202020563D202020204D3D00733D202045
:104E8000673D0000737172740000000030313233EE
:104E90003435363738396162636465666768696AD4
:104EA0006B6C6D6E6F707172737475767778797ADA
:104EB0000000000000000000000000000000F03FC3
:104EC00000000000000024400000000000005940E5
:104ED0000000000000408F40000000000088C34038
:104EE00000000000006AF8400000000080842E41AD
:104EF00000000000D01263410000000084D79741F9
:104F00000000000065CDCD41000000205FA00242FE
:104F1000000000E876483742000000A2941A6D4273
:104F2000000040E59C30A2420000901EC4BCD64266
:104F300000003426F56B0C430080E03779C3414311
:104F400000A0D8855734764300C84E676DC1AB4387
:104F5000003D9160E458E143408CB5781DAF1544A5
:104F600050EFE2D6E41A4B4492D54D06CFF0804480
:104F7000F64AE1C7022DB544B49DD9794378EA4495
:104F800005000000190000007D0000000000000086
:104F90000080E03779C34143176E05B5B5B8934635
:104FA000F5F93FE9034F384D321D30F94877825A01
:104FB0003CBF737FDD4F1575496E66696E69747904
:084FC000000000004E614E00EC
:104FC800050000000000803F00000000010203040B
:104FD800010203040607080902040608010000008C
:104FE800000000000C03002074030020DC030020F4
:104FF80000000000000000000000000000000000A9
:105008000000000000000000000000000000000098
:105018000000000000000000000000000000000088
:105028000000000000000000000000000000000078
:105038000000000000000000000000000000000068
:105048000000000000000000000000000000000058
:105058000000000000000000000000000000000048
:105068000000000000000000000000000000000038
:105078000000000000000000000000000000000028
:105088000000000000000000010000000000000017
:105098000E33CDAB34126DE6ECDE05000B000000DC
:1050A80000000000000000000000000000000000F8
:1050B80000000000000000000000000000000000E8
:1050C80000000000000000000000000000000000D8
:1050D80000000000000000000000000000000000C8
:105408000000000000000000200000200000000054
:10541800000000004C0400204C040020540400202C
:10542800540400205C0400205C0400206404002074
:10543800640400206C0400206C0400207404002024
:10544800740400207C0400207C04002084040020D4
:10545800840400208C0400208C0400209404002084
:10546800940400209C0400209C040020A404002034
:10547800A4040020AC040020AC040020B4040020E4
:10548800B4040020BC040020BC040020C404002094
:10549800C4040020CC040020CC040020D404002044
:1054A800D4040020DC040020DC040020E4040020F4
:1054B800E4040020EC040020EC040020F4040020A4
:1054C800F4040020FC040020FC0400200405002053
:1054D800040500200C0500200C0500201405002000
:1054E800140500201C0500201C05002024050020B0
:1054F800240500202C0500202C0500203405002060
:10550800340500203C0500203C050020440500200F
:10551800440500204C0500204C05002054050020BF
:10552800540500205C0500205C050020640500206F
:10553800640500206C0500206C050020740500201F
:10554800740500207C0500207C05002084050020CF
:10555800840500208C0500208C050020940500207F
:10556800940500209C0500209C050020A40500202F
:10557800A4050020AC050020AC050020B4050020DF
:10558800B4050020BC050020BC050020C40500208F
:10559800C4050020CC050020CC050020D40500203F
:1055A800D4050020DC050020DC050020E4050020EF
:1055B800E4050020EC050020EC050020F40500209F
:1055C800F4050020FC050020FC050020040600204E
:1055D800040600200C0600200C06002014060020FB
:1055E800140600201C0600201C06002024060020AB
:1055F800240600202C0600202C060020340600205B
:10560800340600203C0600203C060020440600200A
:10561800440600204C0600204C06002054060020BA
:10562800540600205C0600205C060020640600206A
:10563800640600206C0600206C060020740600201A
:10564800740600207C0600207C06002084060020CA
:10565800840600208C0600208C060020940600207A
:10566800940600209C0600209C060020A40600202A
:10567800A4060020AC060020AC060020B4060020DA
:10568800B4060020BC060020BC060020C40600208A
:10569800C4060020CC060020CC060020D40600203A
:1056A800D4060020DC060020DC060020E4060020EA
:1056B800E4060020EC060020EC060020F40600209A
:1056C800F4060020FC060020FC0600200407002049
:1056D800040700200C0700200C07002014070020F6
:1056E800140700201C0700201C07002024070020A6
:1056F800240700202C0700202C0700203407002056
:10570800340700203C0700203C0700204407002005
:10571800440700204C0700204C07002054070020B5
:10572800540700205C0700205C0700206407002065
:10573800640700206C0700206C0700207407002015
:10574800740700207C0700207C07002084070020C5
:10575800840700208C0700208C0700209407002075
:10576800940700209C0700209C070020A407002025
:10577800A4070020AC070020AC070020B4070020D5
:10578800B4070020BC070020BC070020C407002085
:10579800C4070020CC070020CC070020D407002035
:1057A800D4070020DC070020DC070020E4070020E5
:1057B800E4070020EC070020EC070020F407002095
:1057C800F4070020FC070020FC0700200408002044
:1057D800040800200C0800200C08002014080020F1
:1057E800140800201C0800201C08002024080020A1
:1057F800240800202C0800202C0800203408002051
:10580800340800203C0800203C0800204408002000
:0C5818004408002000000200FFFFFFFF1A
:0400000508000000EF
:00000001FF
